{
  "contractName": "SchoolFunctions",
  "abi": [
    {
      "constant": true,
      "inputs": [
        {
          "name": "",
          "type": "uint256"
        },
        {
          "name": "",
          "type": "uint256"
        }
      ],
      "name": "schoolTranscriptRequestList",
      "outputs": [
        {
          "name": "uid",
          "type": "uint256"
        },
        {
          "name": "studentName",
          "type": "string"
        },
        {
          "name": "yearCompleted",
          "type": "uint256"
        },
        {
          "name": "refNumber",
          "type": "string"
        },
        {
          "name": "email",
          "type": "string"
        }
      ],
      "payable": false,
      "stateMutability": "view",
      "type": "function",
      "signature": "0x6c6e3c16"
    },
    {
      "constant": true,
      "inputs": [
        {
          "name": "",
          "type": "uint256"
        },
        {
          "name": "",
          "type": "uint256"
        }
      ],
      "name": "schoolTranscriptReceiveList",
      "outputs": [
        {
          "name": "hashString",
          "type": "string"
        },
        {
          "name": "oldSchoolName",
          "type": "string"
        },
        {
          "name": "studentName",
          "type": "string"
        }
      ],
      "payable": false,
      "stateMutability": "view",
      "type": "function",
      "signature": "0x856de648"
    },
    {
      "constant": false,
      "inputs": [
        {
          "name": "_sid",
          "type": "uint256"
        },
        {
          "name": "_oldSchoolID",
          "type": "uint256"
        },
        {
          "name": "_studentName",
          "type": "string"
        },
        {
          "name": "_yearCompleted",
          "type": "uint256"
        },
        {
          "name": "_refNumber",
          "type": "string"
        },
        {
          "name": "_email",
          "type": "string"
        }
      ],
      "name": "addTranscriptRequest",
      "outputs": [],
      "payable": false,
      "stateMutability": "nonpayable",
      "type": "function",
      "signature": "0xed3eb933"
    },
    {
      "constant": false,
      "inputs": [
        {
          "name": "_sid",
          "type": "uint256"
        },
        {
          "name": "_schoolID",
          "type": "uint256"
        },
        {
          "name": "_hashString",
          "type": "string"
        },
        {
          "name": "_oldSchoolName",
          "type": "string"
        },
        {
          "name": "_studentName",
          "type": "string"
        }
      ],
      "name": "addTranscriptReceive",
      "outputs": [],
      "payable": false,
      "stateMutability": "nonpayable",
      "type": "function",
      "signature": "0x04d00c24"
    },
    {
      "constant": false,
      "inputs": [
        {
          "name": "_sid",
          "type": "uint256"
        },
        {
          "name": "_uid",
          "type": "uint256"
        },
        {
          "name": "_transcriptHash",
          "type": "string"
        }
      ],
      "name": "resolveTranscriptRequest",
      "outputs": [],
      "payable": false,
      "stateMutability": "nonpayable",
      "type": "function",
      "signature": "0x7611caee"
    }
  ],
  "bytecode": "0x6080604052731180bca5076d506ed97cb4634baa639e7b98f9df6000806101000a81548173ffffffffffffffffffffffffffffffffffffffff021916908373ffffffffffffffffffffffffffffffffffffffff1602179055506000809054906101000a900473ffffffffffffffffffffffffffffffffffffffff16600160006101000a81548173ffffffffffffffffffffffffffffffffffffffff021916908373ffffffffffffffffffffffffffffffffffffffff1602179055503480156100c657600080fd5b5061103d806100d66000396000f3fe60806040526004361061006d576000357c0100000000000000000000000000000000000000000000000000000000900463ffffffff16806304d00c24146100725780636c6e3c161461009b5780637611caee146100dc578063856de64814610105578063ed3eb93314610144575b600080fd5b34801561007e57600080fd5b5061009960048036036100949190810190610c17565b61016d565b005b3480156100a757600080fd5b506100c260048036036100bd9190810190610b74565b61023d565b6040516100d3959493929190610eb9565b60405180910390f35b3480156100e857600080fd5b5061010360048036036100fe9190810190610bb0565b610457565b005b34801561011157600080fd5b5061012c60048036036101279190810190610b74565b610602565b60405161013b93929190610e22565b60405180910390f35b34801561015057600080fd5b5061016b60048036036101669190810190610cd6565b610810565b005b61017685610910565b151561018157610236565b60036000858152602001908152602001600020606060405190810160405280858152602001848152602001838152509080600181540180825580915050906001820390600052602060002090600302016000909192909190915060008201518160000190805190602001906101f79291906109e0565b5060208201518160010190805190602001906102149291906109e0565b5060408201518160020190805190602001906102319291906109e0565b505050505b5050505050565b60026020528160005260406000208181548110151561025857fe5b906000526020600020906005020160009150915050806000015490806001018054600181600116156101000203166002900480601f01602080910402602001604051908101604052809291908181526020018280546001816001161561010002031660029004801561030b5780601f106102e05761010080835404028352916020019161030b565b820191906000526020600020905b8154815290600101906020018083116102ee57829003601f168201915b505050505090806002015490806003018054600181600116156101000203166002900480601f0160208091040260200160405190810160405280929190818152602001828054600181600116156101000203166002900480156103af5780601f10610384576101008083540402835291602001916103af565b820191906000526020600020905b81548152906001019060200180831161039257829003601f168201915b505050505090806004018054600181600116156101000203166002900480601f01602080910402602001604051908101604052809291908181526020018280546001816001161561010002031660029004801561044d5780601f106104225761010080835404028352916020019161044d565b820191906000526020600020905b81548152906001019060200180831161043057829003601f168201915b5050505050905085565b61046083610910565b151561046b576105fd565b600160009054906101000a900473ffffffffffffffffffffffffffffffffffffffff1673ffffffffffffffffffffffffffffffffffffffff1663f3a7df7e84836040518363ffffffff167c01000000000000000000000000000000000000000000000000000000000281526004016104e4929190610e89565b600060405180830381600087803b1580156104fe57600080fd5b505af1158015610512573d6000803e3d6000fd5b5050505060008090505b60026000858152602001908152602001600020805490508160ff1610156105fb5782600260008681526020019081526020016000208260ff1681548110151561056157fe5b90600052602060002090600502016000015414156105ee57600260008581526020019081526020016000208160ff1681548110151561059c57fe5b90600052602060002090600502016000808201600090556001820160006105c39190610a60565b60028201600090556003820160006105db9190610a60565b6004820160006105eb9190610a60565b50505b808060010191505061051c565b505b505050565b60036020528160005260406000208181548110151561061d57fe5b906000526020600020906003020160009150915050806000018054600181600116156101000203166002900480601f0160208091040260200160405190810160405280929190818152602001828054600181600116156101000203166002900480156106ca5780601f1061069f576101008083540402835291602001916106ca565b820191906000526020600020905b8154815290600101906020018083116106ad57829003601f168201915b505050505090806001018054600181600116156101000203166002900480601f0160208091040260200160405190810160405280929190818152602001828054600181600116156101000203166002900480156107685780601f1061073d57610100808354040283529160200191610768565b820191906000526020600020905b81548152906001019060200180831161074b57829003601f168201915b505050505090806002018054600181600116156101000203166002900480601f0160208091040260200160405190810160405280929190818152602001828054600181600116156101000203166002900480156108065780601f106107db57610100808354040283529160200191610806565b820191906000526020600020905b8154815290600101906020018083116107e957829003601f168201915b5050505050905083565b61081986610910565b151561082457610908565b60008511151561083357600080fd5b6002600086815260200190815260200160002060a06040519081016040528088815260200186815260200185815260200184815260200183815250908060018154018082558091505090600182039060005260206000209060050201600090919290919091506000820151816000015560208201518160010190805190602001906108bf9291906109e0565b506040820151816002015560608201518160030190805190602001906108e69291906109e0565b5060808201518160040190805190602001906109039291906109e0565b505050505b505050505050565b6000600160009054906101000a900473ffffffffffffffffffffffffffffffffffffffff1673ffffffffffffffffffffffffffffffffffffffff1663177a9240836040518263ffffffff167c01000000000000000000000000000000000000000000000000000000000281526004016109899190610e6e565b60206040518083038186803b1580156109a157600080fd5b505afa1580156109b5573d6000803e3d6000fd5b505050506040513d601f19601f820116820180604052506109d99190810190610b4b565b9050919050565b828054600181600116156101000203166002900490600052602060002090601f016020900481019282601f10610a2157805160ff1916838001178555610a4f565b82800160010185558215610a4f579182015b82811115610a4e578251825591602001919060010190610a33565b5b509050610a5c9190610aa8565b5090565b50805460018160011615610100020316600290046000825580601f10610a865750610aa5565b601f016020900490600052602060002090810190610aa49190610aa8565b5b50565b610aca91905b80821115610ac6576000816000905550600101610aae565b5090565b90565b6000610ad98251610f9a565b905092915050565b600082601f8301121515610af457600080fd5b8135610b07610b0282610f4e565b610f21565b91508082526020830160208301858383011115610b2357600080fd5b610b2e838284610fb0565b50505092915050565b6000610b438235610fa6565b905092915050565b600060208284031215610b5d57600080fd5b6000610b6b84828501610acd565b91505092915050565b60008060408385031215610b8757600080fd5b6000610b9585828601610b37565b9250506020610ba685828601610b37565b9150509250929050565b600080600060608486031215610bc557600080fd5b6000610bd386828701610b37565b9350506020610be486828701610b37565b925050604084013567ffffffffffffffff811115610c0157600080fd5b610c0d86828701610ae1565b9150509250925092565b600080600080600060a08688031215610c2f57600080fd5b6000610c3d88828901610b37565b9550506020610c4e88828901610b37565b945050604086013567ffffffffffffffff811115610c6b57600080fd5b610c7788828901610ae1565b935050606086013567ffffffffffffffff811115610c9457600080fd5b610ca088828901610ae1565b925050608086013567ffffffffffffffff811115610cbd57600080fd5b610cc988828901610ae1565b9150509295509295909350565b60008060008060008060c08789031215610cef57600080fd5b6000610cfd89828a01610b37565b9650506020610d0e89828a01610b37565b955050604087013567ffffffffffffffff811115610d2b57600080fd5b610d3789828a01610ae1565b9450506060610d4889828a01610b37565b935050608087013567ffffffffffffffff811115610d6557600080fd5b610d7189828a01610ae1565b92505060a087013567ffffffffffffffff811115610d8e57600080fd5b610d9a89828a01610ae1565b9150509295509295509295565b6000610db282610f85565b808452610dc6816020860160208601610fbf565b610dcf81610ff2565b602085010191505092915050565b6000610de882610f7a565b808452610dfc816020860160208601610fbf565b610e0581610ff2565b602085010191505092915050565b610e1c81610f90565b82525050565b60006060820190508181036000830152610e3c8186610ddd565b90508181036020830152610e508185610ddd565b90508181036040830152610e648184610ddd565b9050949350505050565b6000602082019050610e836000830184610e13565b92915050565b6000604082019050610e9e6000830185610e13565b8181036020830152610eb08184610da7565b90509392505050565b600060a082019050610ece6000830188610e13565b8181036020830152610ee08187610ddd565b9050610eef6040830186610e13565b8181036060830152610f018185610ddd565b90508181036080830152610f158184610ddd565b90509695505050505050565b6000604051905081810181811067ffffffffffffffff82111715610f4457600080fd5b8060405250919050565b600067ffffffffffffffff821115610f6557600080fd5b601f19601f8301169050602081019050919050565b600081519050919050565b600081519050919050565b6000819050919050565b60008115159050919050565b6000819050919050565b82818337600083830152505050565b60005b83811015610fdd578082015181840152602081019050610fc2565b83811115610fec576000848401525b50505050565b6000601f19601f830116905091905056fea265627a7a723058204a2cffc7a0ebe1a19711cc1d6728fd14395dc36a4df217b9066416adb47a61306c6578706572696d656e74616cf50037",
  "source": "pragma solidity ^0.5.0;\npragma experimental ABIEncoderV2;\n\nimport {StringUtils} from \"../libraries/StringUtils.sol\";\n\ncontract Users{\n  struct User{\n    uint id;\n    string email;\n    string passHash;\n    UserData data;\n  }\n\n  struct UserData{\n    uint accType;  // 0 = student; 1 = school;\n    string name;\n    string email;\n    string mobile;\n\n    // SCHOOL ONLY\n    string location;\n    \n    // STUDENT ONLY\n    uint prevInst;\n    uint yearCompleted;\n    string refNumber;\n    string transcriptHash;\n  }\n\n  // current uid\n  // this var is to ensure unique user ids for each user\n  uint cUID;\n\n  // users array/DB\n  User[] private users;\n\n  // active session list\n  // note that sessionID = userID\n  uint[] private activeSessions;\n\n  constructor() public{\n    // id of 0 means nothing\n    cUID = 1;\n  }\n\n  // function to create new user acc\n  function createUser(\n    string memory _email,\n    string memory _passHash,\n    uint _accType,\n    string memory _name,\n    string memory _mobile,\n    string memory _location,\n    uint _prevInst,\n    uint _yearCompleted,\n    string memory _refNumber,\n    string memory _transcriptHash\n  ) public returns (uint){\n    users.push(\n      User({\n        id: cUID++,\n        email: _email,\n        passHash: _passHash,\n        data: UserData({\n          accType: _accType,\n          name: _name,\n          email: _email,\n          mobile: _mobile,\n          location: _location,\n          prevInst: _prevInst,\n          yearCompleted: _yearCompleted,\n          refNumber: _refNumber,\n          transcriptHash: _transcriptHash\n        })\n      })\n    );\n\n    // log user in and return sid\n    return loginUser(_email, _passHash);\n  }\n\n  // function to login\n  function loginUser(\n    string memory _email,\n    string memory _passHash\n  ) public returns (uint) {\n    for (uint8 i = 0; i < users.length; i++) {\n      if(StringUtils.equal(users[i].email, _email) && StringUtils.equal(users[i].passHash, _passHash)){\n        activeSessions.push(users[i].id);\n        return users[i].id;\n      }\n    }\n    return 0;\n  }\n\n  // func to log user out\n  function logoutUser(uint sid) public {\n    require(sid > 0);\n    for(uint8 i = 0; i < activeSessions.length; i++){\n      if(activeSessions[i] == sid) delete activeSessions[i];\n    }\n  }\n\n  // func to verify user is authorized\n  function isAuthed(uint _sid) public view returns (bool) {\n    require(_sid > 0);\n    for(uint8 i = 0; i < activeSessions.length; i++){\n      if(activeSessions[i] == _sid) return true;\n    }\n    return false;\n  }\n\n  // function to set hash\n  function setUserTranscriptHash(uint uid, string memory _transcriptHash) public{\n    if(!isAuthed(uid)) return;\n    for (uint8 i = 0; i < users.length; i++) {\n      if(users[i].id == uid){\n        users[i].data.transcriptHash = _transcriptHash;\n      }\n    }\n  }\n\n  function getAllRegisteredSchools() public view returns (string[] memory) {\n    string[] memory l;\n    for (uint8 i = 0; i < users.length; i++) {\n      if(users[i].data.accType == 1){\n        l[i] = users[i].data.name;\n      }\n    }\n    return l;\n  }\n\n  \n  // user details getters\n  // return \"\" or 0 on FAILURE\n  function getUserName(uint _sid) public view returns (string memory){\n    // if(!isAuthed(_sid)) return \"\";\n    for (uint8 i = 0; i < users.length; i++) {\n      if(users[i].id == _sid){\n        return users[i].data.name;\n      }\n    }\n  }\n\n  function getUserEmail(uint _sid) public view returns (string memory){\n    if(!isAuthed(_sid)) return \"\";\n    for (uint8 i = 0; i < users.length; i++) {\n      if(users[i].id == _sid){\n        return users[i].data.email;\n      }\n    }\n  }\n\n  function getUserMobile(uint _sid) public view returns (string memory){\n    if(!isAuthed(_sid)) return \"\";\n    for (uint8 i = 0; i < users.length; i++) {\n      if(users[i].id == _sid){\n        return users[i].data.mobile;\n      }\n    }\n  }\n\n  function getUserLocation(uint _sid) public view returns (string memory){\n    if(!isAuthed(_sid)) return \"\";\n    for (uint8 i = 0; i < users.length; i++) {\n      if(users[i].id == _sid){\n        return users[i].data.location;\n      }\n    }\n  }\n\n  function getUserPrevInst(uint _sid) public view returns (uint){\n    if(!isAuthed(_sid)) return 0;\n    for (uint8 i = 0; i < users.length; i++) {\n      if(users[i].id == _sid){\n        return users[i].data.prevInst;\n      }\n    }\n  }\n\n  function getUserYearCompleted(uint _sid) public view returns (uint){\n    if(!isAuthed(_sid)) return 0;\n    for (uint8 i = 0; i < users.length; i++) {\n      if(users[i].id == _sid){\n        return users[i].data.yearCompleted;\n      }\n    }\n  }\n\n  function getUserRefNumber(uint _sid) public view returns (string memory){\n    if(!isAuthed(_sid)) return \"\";\n    for (uint8 i = 0; i < users.length; i++) {\n      if(users[i].id == _sid){\n        return users[i].data.refNumber;\n      }\n    }\n  }\n\n  function getUserTranscriptHash(uint _sid) public view returns (string memory){\n    if(!isAuthed(_sid)) return \"\";\n    for (uint8 i = 0; i < users.length; i++) {\n      if(users[i].id == _sid){\n        return users[i].data.transcriptHash;\n      }\n    }\n  }\n\n}\n\n\n\ncontract SchoolFunctions{\n  address usersContractAddr = 0x1180BCA5076D506Ed97Cb4634bAa639e7b98F9dF;\n  Users u = Users(usersContractAddr);\n\n  struct SchoolTranscriptRequest{\n    uint uid;\n    string studentName;\n    uint yearCompleted;\n    string refNumber;\n    string email;\n  }\n\n  struct SchoolTranscriptReceive{\n    string hashString;\n    string oldSchoolName;\n    string studentName;\n  }\n  \n  // school transcript request list\n  mapping (uint => SchoolTranscriptRequest[]) public schoolTranscriptRequestList;\n\n  // school transcript receive list\n  mapping(uint => SchoolTranscriptReceive[]) public schoolTranscriptReceiveList;\n\n\n  // func to add to school request list\n  function addTranscriptRequest(\n    uint _sid,\n    uint _oldSchoolID,\n    string memory _studentName,\n    uint _yearCompleted,\n    string memory _refNumber,\n    string memory _email\n  ) public{\n    if(!isLoggedIn(_sid)) return;\n    require(_oldSchoolID > 0);\n\n    schoolTranscriptRequestList[_oldSchoolID].push(\n      SchoolTranscriptRequest({\n        uid: _sid,\n        studentName: _studentName,\n        yearCompleted: _yearCompleted,\n        refNumber: _refNumber,\n        email: _email\n      })\n    );\n  }\n\n  // func to add to school receive list\n  function addTranscriptReceive(\n    uint _sid,\n    uint _schoolID,\n    string memory _hashString,\n    string memory _oldSchoolName,\n    string memory _studentName\n  ) public{\n    if(!isLoggedIn(_sid)) return;\n    schoolTranscriptReceiveList[_schoolID].push(\n      SchoolTranscriptReceive({\n        hashString: _hashString,\n        oldSchoolName: _oldSchoolName,\n        studentName: _studentName\n      })\n    );\n  }\n\n  // func to resolve transcript request\n  function resolveTranscriptRequest(\n    uint _sid,\n    uint _uid,\n    string memory _transcriptHash\n  ) public{\n    if(!isLoggedIn(_sid)) return;\n    // store the hash\n    u.setUserTranscriptHash(_sid, _transcriptHash);\n    \n    // delete the request\n    for (uint8 i = 0; i < schoolTranscriptRequestList[_sid].length; i++) {\n      if(schoolTranscriptRequestList[_sid][i].uid == _uid){\n        delete schoolTranscriptRequestList[_sid][i];\n      }\n    }\n  }\n\n  // func to verify login\n  function isLoggedIn(uint _sid) view internal returns (bool){\n    return u.isAuthed(_sid);\n  }\n}\n\n\ncontract UserFunctions{\n  address usersContractAddr = 0x1180BCA5076D506Ed97Cb4634bAa639e7b98F9dF;\n  address schoolFunctionsContractAddr = 0xE636cdE2E9b9a4e40Ad2dbfFF28011A94701f6aA;\n  Users u = Users(usersContractAddr);\n  SchoolFunctions sF = SchoolFunctions(schoolFunctionsContractAddr);\n\n  struct UserTranscriptRequestForm{\n    uint uid;\n    uint oldSchoolID;\n  }\n  \n  // list of tmp user request forms\n  UserTranscriptRequestForm[] userTranscriptRequestForms;\n\n  // func to process transcript request\n  // RETURN: 0 = FAILED; 1 = SUCCESS\n  function onTranscriptRequest(\n    uint _sid,\n    uint _oldSchoolID\n  ) public returns (uint8){\n    if(!isLoggedIn(_sid)) return 0;\n    userTranscriptRequestForms.push(\n      UserTranscriptRequestForm({\n        uid: _sid,\n        oldSchoolID: _oldSchoolID\n      })\n    );\n    sF.addTranscriptRequest(\n      _sid,\n      _oldSchoolID,\n      u.getUserName(_sid),\n      u.getUserYearCompleted(_sid),\n      u.getUserRefNumber(_sid),\n      u.getUserEmail(_sid)\n    );\n    return 1;\n  }\n\n  // func to handle sending the transcription to prospec school\n  // RETURNS 0 = FAIL; 1 = SUCCESS\n  function onTranscriptForward(\n    uint _sid,\n    uint _prospecSchoolID\n  ) public returns (uint8){\n    if(!isLoggedIn(_sid)) return 0;\n    sF.addTranscriptReceive(\n      _sid,\n      _prospecSchoolID,\n      u.getUserTranscriptHash(_sid),\n      u.getUserName(u.getUserPrevInst(_sid)),\n      u.getUserName(_sid)\n    );\n    return 1;\n  }\n\n  // get the hash if its available\n  // RETURN; 0 = UNAVAILABLE; <HASH> = AVAILABLE\n  function getTranscriptHash(uint _sid) public view returns (string memory){\n    return u.getUserTranscriptHash(_sid);\n  }\n  \n  // func to verify login\n  function isLoggedIn(uint _sid) view internal returns (bool){\n    return u.isAuthed(_sid);\n  }\n}\n",
  "sourcePath": "/home/node08/Documents/proj/rescript/contracts/Application.sol",
  "compiler": {
    "name": "solc",
    "version": "0.5.0+commit.1d4f565a.Emscripten.clang"
  },
  "schemaVersion": "3.0.6",
  "updatedAt": "2019-04-20T13:14:14.574Z",
  "devdoc": {
    "methods": {}
  },
  "userdoc": {
    "methods": {}
  }
}