{
  "contractName": "StringUtils",
  "abi": [
    {
      "constant": false,
      "inputs": [
        {
          "name": "_a",
          "type": "string"
        },
        {
          "name": "_b",
          "type": "string"
        }
      ],
      "name": "compare",
      "outputs": [
        {
          "name": "",
          "type": "int256"
        }
      ],
      "payable": false,
      "stateMutability": "nonpayable",
      "type": "function",
      "signature": "0x3a96fdd7"
    },
    {
      "constant": false,
      "inputs": [
        {
          "name": "_a",
          "type": "string"
        },
        {
          "name": "_b",
          "type": "string"
        }
      ],
      "name": "equal",
      "outputs": [
        {
          "name": "",
          "type": "bool"
        }
      ],
      "payable": false,
      "stateMutability": "nonpayable",
      "type": "function",
      "signature": "0x46bdca9a"
    },
    {
      "constant": true,
      "inputs": [
        {
          "name": "_haystack",
          "type": "string"
        },
        {
          "name": "_needle",
          "type": "string"
        }
      ],
      "name": "indexOf",
      "outputs": [
        {
          "name": "",
          "type": "int256"
        }
      ],
      "payable": false,
      "stateMutability": "pure",
      "type": "function",
      "signature": "0x8a0807b7"
    }
  ],
  "bytecode": "0x610af2610030600b82828239805160001a6073146000811461002057610022565bfe5b5030600052607381538281f3fe730000000000000000000000000000000000000000301460806040526004361061006e576000357c0100000000000000000000000000000000000000000000000000000000900463ffffffff1680633a96fdd71461007357806346bdca9a146101e65780638a0807b71461035d575b600080fd5b81801561007f57600080fd5b506101d06004803603604081101561009657600080fd5b81019080803590602001906401000000008111156100b357600080fd5b8201836020820111156100c557600080fd5b803590602001918460018302840111640100000000831117156100e757600080fd5b91908080601f016020809104026020016040519081016040528093929190818152602001838380828437600081840152601f19601f8201169050808301925050505050505091929192908035906020019064010000000081111561014a57600080fd5b82018360208201111561015c57600080fd5b8035906020019184600183028401116401000000008311171561017e57600080fd5b91908080601f016020809104026020016040519081016040528093929190818152602001838380828437600081840152601f19601f8201169050808301925050505050505091929192905050506104c3565b6040518082815260200191505060405180910390f35b8180156101f257600080fd5b506103436004803603604081101561020957600080fd5b810190808035906020019064010000000081111561022657600080fd5b82018360208201111561023857600080fd5b8035906020019184600183028401116401000000008311171561025a57600080fd5b91908080601f016020809104026020016040519081016040528093929190818152602001838380828437600081840152601f19601f820116905080830192505050505050509192919290803590602001906401000000008111156102bd57600080fd5b8201836020820111156102cf57600080fd5b803590602001918460018302840111640100000000831117156102f157600080fd5b91908080601f016020809104026020016040519081016040528093929190818152602001838380828437600081840152601f19601f820116905080830192505050505050509192919290505050610789565b604051808215151515815260200191505060405180910390f35b6104ad6004803603604081101561037357600080fd5b810190808035906020019064010000000081111561039057600080fd5b8201836020820111156103a257600080fd5b803590602001918460018302840111640100000000831117156103c457600080fd5b91908080601f016020809104026020016040519081016040528093929190818152602001838380828437600081840152601f19601f8201169050808301925050505050505091929192908035906020019064010000000081111561042757600080fd5b82018360208201111561043957600080fd5b8035906020019184600183028401116401000000008311171561045b57600080fd5b91908080601f016020809104026020016040519081016040528093929190818152602001838380828437600081840152601f19601f82011690508083019250505050505050919291929050505061079f565b6040518082815260200191505060405180910390f35b60006060839050606083905060008251905080825110156104e357815190505b60008090505b8181101561072f5782818151811015156104ff57fe5b9060200101517f010000000000000000000000000000000000000000000000000000000000000090047f0100000000000000000000000000000000000000000000000000000000000000027effffffffffffffffffffffffffffffffffffffffffffffffffffffffffffff1916848281518110151561057a57fe5b9060200101517f010000000000000000000000000000000000000000000000000000000000000090047f0100000000000000000000000000000000000000000000000000000000000000027effffffffffffffffffffffffffffffffffffffffffffffffffffffffffffff19161015610619577fffffffffffffffffffffffffffffffffffffffffffffffffffffffffffffffff945050505050610783565b828181518110151561062757fe5b9060200101517f010000000000000000000000000000000000000000000000000000000000000090047f0100000000000000000000000000000000000000000000000000000000000000027effffffffffffffffffffffffffffffffffffffffffffffffffffffffffffff191684828151811015156106a257fe5b9060200101517f010000000000000000000000000000000000000000000000000000000000000090047f0100000000000000000000000000000000000000000000000000000000000000027effffffffffffffffffffffffffffffffffffffffffffffffffffffffffffff19161115610722576001945050505050610783565b80806001019150506104e9565b50815183511015610765577fffffffffffffffffffffffffffffffffffffffffffffffffffffffffffffffff9350505050610783565b81518351111561077b5760019350505050610783565b600093505050505b92915050565b60008061079684846104c3565b14905092915050565b6000606083905060608390506001825110806107bc575060018151105b806107c8575081518151115b156107f7577fffffffffffffffffffffffffffffffffffffffffffffffffffffffffffffffff92505050610ac0565b6fffffffffffffffffffffffffffffffff8251111561083a577fffffffffffffffffffffffffffffffffffffffffffffffffffffffffffffffff92505050610ac0565b600080905060008090505b8351811015610a985782600081518110151561085d57fe5b9060200101517f010000000000000000000000000000000000000000000000000000000000000090047f0100000000000000000000000000000000000000000000000000000000000000027effffffffffffffffffffffffffffffffffffffffffffffffffffffffffffff191684828151811015156108d857fe5b9060200101517f010000000000000000000000000000000000000000000000000000000000000090047f0100000000000000000000000000000000000000000000000000000000000000027effffffffffffffffffffffffffffffffffffffffffffffffffffffffffffff19161415610a8b57600191505b82518210801561096257508351828201105b8015610a635750828281518110151561097757fe5b9060200101517f010000000000000000000000000000000000000000000000000000000000000090047f0100000000000000000000000000000000000000000000000000000000000000027effffffffffffffffffffffffffffffffffffffffffffffffffffffffffffff1916848383018151811015156109f457fe5b9060200101517f010000000000000000000000000000000000000000000000000000000000000090047f0100000000000000000000000000000000000000000000000000000000000000027effffffffffffffffffffffffffffffffffffffffffffffffffffffffffffff1916145b15610a75578180600101925050610950565b8251821415610a8a5780945050505050610ac0565b5b8080600101915050610845565b507fffffffffffffffffffffffffffffffffffffffffffffffffffffffffffffffff93505050505b9291505056fea165627a7a72305820da7f631aa8a92ea94f77745b337b58cb5b6553c544d216ed64f4902ce5b75fde0029",
  "source": "pragma solidity ^0.5.0;\n\nlibrary StringUtils {\n  /// @dev Does a byte-by-byte lexicographical comparison of two strings.\n  /// @return a negative number if `_a` is smaller, zero if they are equal\n  /// and a positive numbe if `_b` is smaller.\n  function compare(string memory _a, string memory _b) public returns (int) {\n    bytes memory a = bytes(_a);\n    bytes memory b = bytes(_b);\n    uint minLength = a.length;\n    if (b.length < minLength) minLength = b.length;\n    //@todo unroll the loop into increments of 32 and do full 32 byte comparisons\n    for (uint i = 0; i < minLength; i ++)\n      if (a[i] < b[i])\n        return -1;\n      else if (a[i] > b[i])\n        return 1;\n    if (a.length < b.length)\n      return -1;\n    else if (a.length > b.length)\n      return 1;\n    else\n      return 0;\n  }\n  /// @dev Compares two strings and returns true iff they are equal.\n  function equal(string memory _a, string memory _b) public returns (bool) {\n      return compare(_a, _b) == 0;\n  }\n  /// @dev Finds the index of the first occurrence of _needle in _haystack\n  function indexOf(string memory _haystack, string memory _needle) public pure returns (int)\n  {\n    bytes memory h = bytes(_haystack);\n    bytes memory n = bytes(_needle);\n    if(h.length < 1 || n.length < 1 || (n.length > h.length)) \n      return -1;\n    else if(h.length > (2**128 -1)) // since we have to be able to return -1 (if the char isn't found or input error), this function must return an \"int\" type with a max length of (2^128 - 1)\n      return -1;\t\t\t\t\t\t\t\t\t\n    else\n    {\n      uint subindex = 0;\n      for (uint i = 0; i < h.length; i ++)\n      {\n        if (h[i] == n[0]) // found the first char of b\n        {\n          subindex = 1;\n          while(subindex < n.length && (i + subindex) < h.length && h[i + subindex] == n[subindex]) // search until the chars don't match or until we reach the end of a or b\n          {\n            subindex++;\n          }\t\n          if(subindex == n.length)\n            return int(i);\n        }\n      }\n      return -1;\n    }\t\n  }\n}\n",
  "sourcePath": "/home/node08/Documents/proj/rescript/libraries/StringUtils.sol",
  "compiler": {
    "name": "solc",
    "version": "0.5.0+commit.1d4f565a.Emscripten.clang"
  },
  "schemaVersion": "3.0.6",
  "updatedAt": "2019-04-20T13:04:29.639Z",
  "devdoc": {
    "methods": {
      "compare(string,string)": {
        "details": "Does a byte-by-byte lexicographical comparison of two strings.",
        "return": "a negative number if `_a` is smaller, zero if they are equal and a positive numbe if `_b` is smaller."
      },
      "equal(string,string)": {
        "details": "Compares two strings and returns true iff they are equal."
      },
      "indexOf(string,string)": {
        "details": "Finds the index of the first occurrence of _needle in _haystack"
      }
    }
  },
  "userdoc": {
    "methods": {}
  }
}