{
  "contractName": "UserFunctions",
  "abi": [
    {
      "constant": false,
      "inputs": [
        {
          "name": "_sid",
          "type": "uint256"
        },
        {
          "name": "_oldSchoolID",
          "type": "uint256"
        }
      ],
      "name": "onTranscriptRequest",
      "outputs": [
        {
          "name": "",
          "type": "uint8"
        }
      ],
      "payable": false,
      "stateMutability": "nonpayable",
      "type": "function"
    },
    {
      "constant": false,
      "inputs": [
        {
          "name": "_sid",
          "type": "uint256"
        },
        {
          "name": "_prospecSchoolID",
          "type": "uint256"
        }
      ],
      "name": "onTranscriptForward",
      "outputs": [
        {
          "name": "",
          "type": "uint8"
        }
      ],
      "payable": false,
      "stateMutability": "nonpayable",
      "type": "function"
    },
    {
      "constant": true,
      "inputs": [
        {
          "name": "_sid",
          "type": "uint256"
        }
      ],
      "name": "getTranscriptHash",
      "outputs": [
        {
          "name": "",
          "type": "string"
        }
      ],
      "payable": false,
      "stateMutability": "view",
      "type": "function"
    }
  ],
  "bytecode": "0x6080604052731180bca5076d506ed97cb4634baa639e7b98f9df6000806101000a81548173ffffffffffffffffffffffffffffffffffffffff021916908373ffffffffffffffffffffffffffffffffffffffff16021790555073e636cde2e9b9a4e40ad2dbfff28011a94701f6aa600160006101000a81548173ffffffffffffffffffffffffffffffffffffffff021916908373ffffffffffffffffffffffffffffffffffffffff1602179055506000809054906101000a900473ffffffffffffffffffffffffffffffffffffffff16600260006101000a81548173ffffffffffffffffffffffffffffffffffffffff021916908373ffffffffffffffffffffffffffffffffffffffff160217905550600160009054906101000a900473ffffffffffffffffffffffffffffffffffffffff16600360006101000a81548173ffffffffffffffffffffffffffffffffffffffff021916908373ffffffffffffffffffffffffffffffffffffffff16021790555034801561017e57600080fd5b50610f308061018e6000396000f3fe608060405260043610610057576000357c0100000000000000000000000000000000000000000000000000000000900463ffffffff168063160e50e01461005c578063a49348f414610099578063e369343e146100d6575b600080fd5b34801561006857600080fd5b50610083600480360361007e9190810190610c5b565b610113565b6040516100909190610e06565b60405180910390f35b3480156100a557600080fd5b506100c060048036036100bb9190810190610c09565b610510565b6040516100cd9190610ceb565b60405180910390f35b3480156100e257600080fd5b506100fd60048036036100f89190810190610c5b565b6105e5565b60405161010a9190610e06565b60405180910390f35b600061011e83610a3d565b151561012d576000905061050a565b600360009054906101000a900473ffffffffffffffffffffffffffffffffffffffff1673ffffffffffffffffffffffffffffffffffffffff166304d00c248484600260009054906101000a900473ffffffffffffffffffffffffffffffffffffffff1673ffffffffffffffffffffffffffffffffffffffff1663665dcb74886040518263ffffffff167c01000000000000000000000000000000000000000000000000000000000281526004016101e49190610d0d565b60006040518083038186803b1580156101fc57600080fd5b505afa158015610210573d6000803e3d6000fd5b505050506040513d6000823e3d601f19601f820116820180604052506102399190810190610bc8565b600260009054906101000a900473ffffffffffffffffffffffffffffffffffffffff1673ffffffffffffffffffffffffffffffffffffffff1663988da80f600260009054906101000a900473ffffffffffffffffffffffffffffffffffffffff1673ffffffffffffffffffffffffffffffffffffffff1663f574f4078b6040518263ffffffff167c01000000000000000000000000000000000000000000000000000000000281526004016102ee9190610d0d565b60206040518083038186803b15801561030657600080fd5b505afa15801561031a573d6000803e3d6000fd5b505050506040513d601f19601f8201168201806040525061033e9190810190610c32565b6040518263ffffffff167c01000000000000000000000000000000000000000000000000000000000281526004016103769190610d0d565b60006040518083038186803b15801561038e57600080fd5b505afa1580156103a2573d6000803e3d6000fd5b505050506040513d6000823e3d601f19601f820116820180604052506103cb9190810190610bc8565b600260009054906101000a900473ffffffffffffffffffffffffffffffffffffffff1673ffffffffffffffffffffffffffffffffffffffff1663988da80f8a6040518263ffffffff167c01000000000000000000000000000000000000000000000000000000000281526004016104429190610d0d565b60006040518083038186803b15801561045a57600080fd5b505afa15801561046e573d6000803e3d6000fd5b505050506040513d6000823e3d601f19601f820116820180604052506104979190810190610bc8565b6040518663ffffffff167c01000000000000000000000000000000000000000000000000000000000281526004016104d3959493929190610d28565b600060405180830381600087803b1580156104ed57600080fd5b505af1158015610501573d6000803e3d6000fd5b50505050600190505b92915050565b6060600260009054906101000a900473ffffffffffffffffffffffffffffffffffffffff1673ffffffffffffffffffffffffffffffffffffffff1663665dcb74836040518263ffffffff167c01000000000000000000000000000000000000000000000000000000000281526004016105899190610d0d565b60006040518083038186803b1580156105a157600080fd5b505afa1580156105b5573d6000803e3d6000fd5b505050506040513d6000823e3d601f19601f820116820180604052506105de9190810190610bc8565b9050919050565b60006105f083610a3d565b15156105ff5760009050610a37565b6004604080519081016040528085815260200184815250908060018154018082558091505090600182039060005260206000209060020201600090919290919091506000820151816000015560208201518160010155505050600360009054906101000a900473ffffffffffffffffffffffffffffffffffffffff1673ffffffffffffffffffffffffffffffffffffffff1663ed3eb9338484600260009054906101000a900473ffffffffffffffffffffffffffffffffffffffff1673ffffffffffffffffffffffffffffffffffffffff1663988da80f886040518263ffffffff167c010000000000000000000000000000000000000000000000000000000002815260040161070f9190610d0d565b60006040518083038186803b15801561072757600080fd5b505afa15801561073b573d6000803e3d6000fd5b505050506040513d6000823e3d601f19601f820116820180604052506107649190810190610bc8565b600260009054906101000a900473ffffffffffffffffffffffffffffffffffffffff1673ffffffffffffffffffffffffffffffffffffffff16634d7838e2896040518263ffffffff167c01000000000000000000000000000000000000000000000000000000000281526004016107db9190610d0d565b60206040518083038186803b1580156107f357600080fd5b505afa158015610807573d6000803e3d6000fd5b505050506040513d601f19601f8201168201806040525061082b9190810190610c32565b600260009054906101000a900473ffffffffffffffffffffffffffffffffffffffff1673ffffffffffffffffffffffffffffffffffffffff16637b41631e8a6040518263ffffffff167c01000000000000000000000000000000000000000000000000000000000281526004016108a29190610d0d565b60006040518083038186803b1580156108ba57600080fd5b505afa1580156108ce573d6000803e3d6000fd5b505050506040513d6000823e3d601f19601f820116820180604052506108f79190810190610bc8565b600260009054906101000a900473ffffffffffffffffffffffffffffffffffffffff1673ffffffffffffffffffffffffffffffffffffffff16638dc574e58b6040518263ffffffff167c010000000000000000000000000000000000000000000000000000000002815260040161096e9190610d0d565b60006040518083038186803b15801561098657600080fd5b505afa15801561099a573d6000803e3d6000fd5b505050506040513d6000823e3d601f19601f820116820180604052506109c39190810190610bc8565b6040518763ffffffff167c0100000000000000000000000000000000000000000000000000000000028152600401610a0096959493929190610d90565b600060405180830381600087803b158015610a1a57600080fd5b505af1158015610a2e573d6000803e3d6000fd5b50505050600190505b92915050565b6000600260009054906101000a900473ffffffffffffffffffffffffffffffffffffffff1673ffffffffffffffffffffffffffffffffffffffff1663177a9240836040518263ffffffff167c0100000000000000000000000000000000000000000000000000000000028152600401610ab69190610d0d565b60206040518083038186803b158015610ace57600080fd5b505afa158015610ae2573d6000803e3d6000fd5b505050506040513d601f19601f82011682018060405250610b069190810190610b9f565b9050919050565b6000610b198251610e9c565b905092915050565b600082601f8301121515610b3457600080fd5b8151610b47610b4282610e4e565b610e21565b91508082526020830160208301858383011115610b6357600080fd5b610b6e838284610eb2565b50505092915050565b6000610b838235610ea8565b905092915050565b6000610b978251610ea8565b905092915050565b600060208284031215610bb157600080fd5b6000610bbf84828501610b0d565b91505092915050565b600060208284031215610bda57600080fd5b600082015167ffffffffffffffff811115610bf457600080fd5b610c0084828501610b21565b91505092915050565b600060208284031215610c1b57600080fd5b6000610c2984828501610b77565b91505092915050565b600060208284031215610c4457600080fd5b6000610c5284828501610b8b565b91505092915050565b60008060408385031215610c6e57600080fd5b6000610c7c85828601610b77565b9250506020610c8d85828601610b77565b9150509250929050565b6000610ca282610e7a565b808452610cb6816020860160208601610eb2565b610cbf81610ee5565b602085010191505092915050565b610cd681610e85565b82525050565b610ce581610e8f565b82525050565b60006020820190508181036000830152610d058184610c97565b905092915050565b6000602082019050610d226000830184610ccd565b92915050565b600060a082019050610d3d6000830188610ccd565b610d4a6020830187610ccd565b8181036040830152610d5c8186610c97565b90508181036060830152610d708185610c97565b90508181036080830152610d848184610c97565b90509695505050505050565b600060c082019050610da56000830189610ccd565b610db26020830188610ccd565b8181036040830152610dc48187610c97565b9050610dd36060830186610ccd565b8181036080830152610de58185610c97565b905081810360a0830152610df98184610c97565b9050979650505050505050565b6000602082019050610e1b6000830184610cdc565b92915050565b6000604051905081810181811067ffffffffffffffff82111715610e4457600080fd5b8060405250919050565b600067ffffffffffffffff821115610e6557600080fd5b601f19601f8301169050602081019050919050565b600081519050919050565b6000819050919050565b600060ff82169050919050565b60008115159050919050565b6000819050919050565b60005b83811015610ed0578082015181840152602081019050610eb5565b83811115610edf576000848401525b50505050565b6000601f19601f830116905091905056fea265627a7a72305820edc2f2ec858cd53caf7454430f28ff1227b9311e7763e7eb45cdb6c403f7ff276c6578706572696d656e74616cf50037",
  "source": "pragma solidity ^0.5.0;\npragma experimental ABIEncoderV2;\n\nimport {StringUtils} from \"../libraries/StringUtils.sol\";\n\ncontract Users{\n  struct User{\n    uint id;\n    string email;\n    string passHash;\n    UserData data;\n  }\n\n  struct UserData{\n    uint accType;  // 0 = student; 1 = school;\n    string name;\n    string email;\n    string mobile;\n\n    // SCHOOL ONLY\n    string location;\n    \n    // STUDENT ONLY\n    uint prevInst;\n    uint yearCompleted;\n    string refNumber;\n    string transcriptHash;\n  }\n\n  // current uid\n  // this var is to ensure unique user ids for each user\n  uint cUID;\n\n  // users array/DB\n  User[] private users;\n\n  // active session list\n  // note that sessionID = userID\n  uint[] private activeSessions;\n\n  constructor() public{\n    // id of 0 means nothing\n    cUID = 1;\n  }\n\n  // function to create new user acc\n  function createUser(\n    string memory _email,\n    string memory _passHash,\n    uint _accType,\n    string memory _name,\n    string memory _mobile,\n    string memory _location,\n    uint _prevInst,\n    uint _yearCompleted,\n    string memory _refNumber,\n    string memory _transcriptHash\n  ) public returns (uint){\n    users.push(\n      User({\n        id: cUID++,\n        email: _email,\n        passHash: _passHash,\n        data: UserData({\n          accType: _accType,\n          name: _name,\n          email: _email,\n          mobile: _mobile,\n          location: _location,\n          prevInst: _prevInst,\n          yearCompleted: _yearCompleted,\n          refNumber: _refNumber,\n          transcriptHash: _transcriptHash\n        })\n      })\n    );\n\n    // log user in and return sid\n    return loginUser(_email, _passHash);\n  }\n\n  // function to login\n  function loginUser(\n    string memory _email,\n    string memory _passHash\n  ) public returns (uint) {\n    for (uint8 i = 0; i < users.length; i++) {\n      if(StringUtils.equal(users[i].email, _email) && StringUtils.equal(users[i].passHash, _passHash)){\n        activeSessions.push(users[i].id);\n        return users[i].id;\n      }\n    }\n    return 0;\n  }\n\n  // func to log user out\n  function logoutUser(uint sid) public {\n    require(sid > 0);\n    for(uint8 i = 0; i < activeSessions.length; i++){\n      if(activeSessions[i] == sid) delete activeSessions[i];\n    }\n  }\n\n  // func to verify user is authorized\n  function isAuthed(uint _sid) public view returns (bool) {\n    require(_sid > 0);\n    for(uint8 i = 0; i < activeSessions.length; i++){\n      if(activeSessions[i] == _sid) return true;\n    }\n    return false;\n  }\n\n  // function to set hash\n  function setUserTranscriptHash(uint uid, string memory _transcriptHash) public{\n    if(!isAuthed(uid)) return;\n    for (uint8 i = 0; i < users.length; i++) {\n      if(users[i].id == uid){\n        users[i].data.transcriptHash = _transcriptHash;\n      }\n    }\n  }\n\n  function getAllRegisteredSchools() public view returns (string[] memory) {\n    string[] memory l;\n    for (uint8 i = 0; i < users.length; i++) {\n      if(users[i].data.accType == 1){\n        l[i] = users[i].data.name;\n      }\n    }\n    return l;\n  }\n\n  \n  // user details getters\n  // return \"\" or 0 on FAILURE\n  function getUserName(uint _sid) public view returns (string memory){\n    // if(!isAuthed(_sid)) return \"\";\n    for (uint8 i = 0; i < users.length; i++) {\n      if(users[i].id == _sid){\n        return users[i].data.name;\n      }\n    }\n  }\n\n  function getUserEmail(uint _sid) public view returns (string memory){\n    if(!isAuthed(_sid)) return \"\";\n    for (uint8 i = 0; i < users.length; i++) {\n      if(users[i].id == _sid){\n        return users[i].data.email;\n      }\n    }\n  }\n\n  function getUserMobile(uint _sid) public view returns (string memory){\n    if(!isAuthed(_sid)) return \"\";\n    for (uint8 i = 0; i < users.length; i++) {\n      if(users[i].id == _sid){\n        return users[i].data.mobile;\n      }\n    }\n  }\n\n  function getUserLocation(uint _sid) public view returns (string memory){\n    if(!isAuthed(_sid)) return \"\";\n    for (uint8 i = 0; i < users.length; i++) {\n      if(users[i].id == _sid){\n        return users[i].data.location;\n      }\n    }\n  }\n\n  function getUserPrevInst(uint _sid) public view returns (uint){\n    if(!isAuthed(_sid)) return 0;\n    for (uint8 i = 0; i < users.length; i++) {\n      if(users[i].id == _sid){\n        return users[i].data.prevInst;\n      }\n    }\n  }\n\n  function getUserYearCompleted(uint _sid) public view returns (uint){\n    if(!isAuthed(_sid)) return 0;\n    for (uint8 i = 0; i < users.length; i++) {\n      if(users[i].id == _sid){\n        return users[i].data.yearCompleted;\n      }\n    }\n  }\n\n  function getUserRefNumber(uint _sid) public view returns (string memory){\n    if(!isAuthed(_sid)) return \"\";\n    for (uint8 i = 0; i < users.length; i++) {\n      if(users[i].id == _sid){\n        return users[i].data.refNumber;\n      }\n    }\n  }\n\n  function getUserTranscriptHash(uint _sid) public view returns (string memory){\n    if(!isAuthed(_sid)) return \"\";\n    for (uint8 i = 0; i < users.length; i++) {\n      if(users[i].id == _sid){\n        return users[i].data.transcriptHash;\n      }\n    }\n  }\n\n}\n\n\n\ncontract SchoolFunctions{\n  address usersContractAddr = 0x1180BCA5076D506Ed97Cb4634bAa639e7b98F9dF;\n  Users u = Users(usersContractAddr);\n\n  struct SchoolTranscriptRequest{\n    uint uid;\n    string studentName;\n    uint yearCompleted;\n    string refNumber;\n    string email;\n  }\n\n  struct SchoolTranscriptReceive{\n    string hashString;\n    string oldSchoolName;\n    string studentName;\n  }\n  \n  // school transcript request list\n  mapping (uint => SchoolTranscriptRequest[]) public schoolTranscriptRequestList;\n\n  // school transcript receive list\n  mapping(uint => SchoolTranscriptReceive[]) public schoolTranscriptReceiveList;\n\n\n  // func to add to school request list\n  function addTranscriptRequest(\n    uint _sid,\n    uint _oldSchoolID,\n    string memory _studentName,\n    uint _yearCompleted,\n    string memory _refNumber,\n    string memory _email\n  ) public{\n    if(!isLoggedIn(_sid)) return;\n    require(_oldSchoolID > 0);\n\n    schoolTranscriptRequestList[_oldSchoolID].push(\n      SchoolTranscriptRequest({\n        uid: _sid,\n        studentName: _studentName,\n        yearCompleted: _yearCompleted,\n        refNumber: _refNumber,\n        email: _email\n      })\n    );\n  }\n\n  // func to add to school receive list\n  function addTranscriptReceive(\n    uint _sid,\n    uint _schoolID,\n    string memory _hashString,\n    string memory _oldSchoolName,\n    string memory _studentName\n  ) public{\n    if(!isLoggedIn(_sid)) return;\n    schoolTranscriptReceiveList[_schoolID].push(\n      SchoolTranscriptReceive({\n        hashString: _hashString,\n        oldSchoolName: _oldSchoolName,\n        studentName: _studentName\n      })\n    );\n  }\n\n  // func to resolve transcript request\n  function resolveTranscriptRequest(\n    uint _sid,\n    uint _uid,\n    string memory _transcriptHash\n  ) public{\n    if(!isLoggedIn(_sid)) return;\n    // store the hash\n    u.setUserTranscriptHash(_sid, _transcriptHash);\n    \n    // delete the request\n    for (uint8 i = 0; i < schoolTranscriptRequestList[_sid].length; i++) {\n      if(schoolTranscriptRequestList[_sid][i].uid == _uid){\n        delete schoolTranscriptRequestList[_sid][i];\n      }\n    }\n  }\n\n  // func to verify login\n  function isLoggedIn(uint _sid) view internal returns (bool){\n    return u.isAuthed(_sid);\n  }\n}\n\n\ncontract UserFunctions{\n  address usersContractAddr = 0x1180BCA5076D506Ed97Cb4634bAa639e7b98F9dF;\n  address schoolFunctionsContractAddr = 0xE636cdE2E9b9a4e40Ad2dbfFF28011A94701f6aA;\n  Users u = Users(usersContractAddr);\n  SchoolFunctions sF = SchoolFunctions(schoolFunctionsContractAddr);\n\n  struct UserTranscriptRequestForm{\n    uint uid;\n    uint oldSchoolID;\n  }\n  \n  // list of tmp user request forms\n  UserTranscriptRequestForm[] userTranscriptRequestForms;\n\n  // func to process transcript request\n  // RETURN: 0 = FAILED; 1 = SUCCESS\n  function onTranscriptRequest(\n    uint _sid,\n    uint _oldSchoolID\n  ) public returns (uint8){\n    if(!isLoggedIn(_sid)) return 0;\n    userTranscriptRequestForms.push(\n      UserTranscriptRequestForm({\n        uid: _sid,\n        oldSchoolID: _oldSchoolID\n      })\n    );\n    sF.addTranscriptRequest(\n      _sid,\n      _oldSchoolID,\n      u.getUserName(_sid),\n      u.getUserYearCompleted(_sid),\n      u.getUserRefNumber(_sid),\n      u.getUserEmail(_sid)\n    );\n    return 1;\n  }\n\n  // func to handle sending the transcription to prospec school\n  // RETURNS 0 = FAIL; 1 = SUCCESS\n  function onTranscriptForward(\n    uint _sid,\n    uint _prospecSchoolID\n  ) public returns (uint8){\n    if(!isLoggedIn(_sid)) return 0;\n    sF.addTranscriptReceive(\n      _sid,\n      _prospecSchoolID,\n      u.getUserTranscriptHash(_sid),\n      u.getUserName(u.getUserPrevInst(_sid)),\n      u.getUserName(_sid)\n    );\n    return 1;\n  }\n\n  // get the hash if its available\n  // RETURN; 0 = UNAVAILABLE; <HASH> = AVAILABLE\n  function getTranscriptHash(uint _sid) public view returns (string memory){\n    return u.getUserTranscriptHash(_sid);\n  }\n  \n  // func to verify login\n  function isLoggedIn(uint _sid) view internal returns (bool){\n    return u.isAuthed(_sid);\n  }\n}\n",
  "sourcePath": "/home/node08/Documents/proj/rescript/contracts/Application.sol",
  "compiler": {
    "name": "solc",
    "version": "0.5.0+commit.1d4f565a.Emscripten.clang"
  },
  "schemaVersion": "3.0.6",
  "updatedAt": "2019-04-20T13:14:14.656Z",
  "devdoc": {
    "methods": {}
  },
  "userdoc": {
    "methods": {}
  }
}