{
  "contractName": "Users",
  "abi": [
    {
      "inputs": [],
      "payable": false,
      "stateMutability": "nonpayable",
      "type": "constructor",
      "signature": "constructor"
    },
    {
      "constant": false,
      "inputs": [
        {
          "name": "_email",
          "type": "string"
        },
        {
          "name": "_passHash",
          "type": "string"
        },
        {
          "name": "_accType",
          "type": "uint256"
        },
        {
          "name": "_name",
          "type": "string"
        },
        {
          "name": "_mobile",
          "type": "string"
        },
        {
          "name": "_location",
          "type": "string"
        },
        {
          "name": "_prevInst",
          "type": "uint256"
        },
        {
          "name": "_yearCompleted",
          "type": "uint256"
        },
        {
          "name": "_refNumber",
          "type": "string"
        },
        {
          "name": "_transcriptHash",
          "type": "string"
        }
      ],
      "name": "createUser",
      "outputs": [
        {
          "name": "",
          "type": "uint256"
        }
      ],
      "payable": false,
      "stateMutability": "nonpayable",
      "type": "function",
      "signature": "0x2d21afef"
    },
    {
      "constant": false,
      "inputs": [
        {
          "name": "_email",
          "type": "string"
        },
        {
          "name": "_passHash",
          "type": "string"
        }
      ],
      "name": "loginUser",
      "outputs": [
        {
          "name": "",
          "type": "uint256"
        }
      ],
      "payable": false,
      "stateMutability": "nonpayable",
      "type": "function",
      "signature": "0x22ce12e5"
    },
    {
      "constant": false,
      "inputs": [
        {
          "name": "sid",
          "type": "uint256"
        }
      ],
      "name": "logoutUser",
      "outputs": [],
      "payable": false,
      "stateMutability": "nonpayable",
      "type": "function",
      "signature": "0xcbf980e9"
    },
    {
      "constant": true,
      "inputs": [
        {
          "name": "_sid",
          "type": "uint256"
        }
      ],
      "name": "isAuthed",
      "outputs": [
        {
          "name": "",
          "type": "bool"
        }
      ],
      "payable": false,
      "stateMutability": "view",
      "type": "function",
      "signature": "0x177a9240"
    },
    {
      "constant": false,
      "inputs": [
        {
          "name": "uid",
          "type": "uint256"
        },
        {
          "name": "_transcriptHash",
          "type": "string"
        }
      ],
      "name": "setUserTranscriptHash",
      "outputs": [],
      "payable": false,
      "stateMutability": "nonpayable",
      "type": "function",
      "signature": "0xf3a7df7e"
    },
    {
      "constant": true,
      "inputs": [],
      "name": "getAllRegisteredSchools",
      "outputs": [
        {
          "name": "",
          "type": "string[]"
        }
      ],
      "payable": false,
      "stateMutability": "view",
      "type": "function",
      "signature": "0xa432afa4"
    },
    {
      "constant": true,
      "inputs": [
        {
          "name": "_sid",
          "type": "uint256"
        }
      ],
      "name": "getUserName",
      "outputs": [
        {
          "name": "",
          "type": "string"
        }
      ],
      "payable": false,
      "stateMutability": "view",
      "type": "function",
      "signature": "0x988da80f"
    },
    {
      "constant": true,
      "inputs": [
        {
          "name": "_sid",
          "type": "uint256"
        }
      ],
      "name": "getUserEmail",
      "outputs": [
        {
          "name": "",
          "type": "string"
        }
      ],
      "payable": false,
      "stateMutability": "view",
      "type": "function",
      "signature": "0x8dc574e5"
    },
    {
      "constant": true,
      "inputs": [
        {
          "name": "_sid",
          "type": "uint256"
        }
      ],
      "name": "getUserMobile",
      "outputs": [
        {
          "name": "",
          "type": "string"
        }
      ],
      "payable": false,
      "stateMutability": "view",
      "type": "function",
      "signature": "0x1fec5aaa"
    },
    {
      "constant": true,
      "inputs": [
        {
          "name": "_sid",
          "type": "uint256"
        }
      ],
      "name": "getUserLocation",
      "outputs": [
        {
          "name": "",
          "type": "string"
        }
      ],
      "payable": false,
      "stateMutability": "view",
      "type": "function",
      "signature": "0x3e961be1"
    },
    {
      "constant": true,
      "inputs": [
        {
          "name": "_sid",
          "type": "uint256"
        }
      ],
      "name": "getUserPrevInst",
      "outputs": [
        {
          "name": "",
          "type": "uint256"
        }
      ],
      "payable": false,
      "stateMutability": "view",
      "type": "function",
      "signature": "0xf574f407"
    },
    {
      "constant": true,
      "inputs": [
        {
          "name": "_sid",
          "type": "uint256"
        }
      ],
      "name": "getUserYearCompleted",
      "outputs": [
        {
          "name": "",
          "type": "uint256"
        }
      ],
      "payable": false,
      "stateMutability": "view",
      "type": "function",
      "signature": "0x4d7838e2"
    },
    {
      "constant": true,
      "inputs": [
        {
          "name": "_sid",
          "type": "uint256"
        }
      ],
      "name": "getUserRefNumber",
      "outputs": [
        {
          "name": "",
          "type": "string"
        }
      ],
      "payable": false,
      "stateMutability": "view",
      "type": "function",
      "signature": "0x7b41631e"
    },
    {
      "constant": true,
      "inputs": [
        {
          "name": "_sid",
          "type": "uint256"
        }
      ],
      "name": "getUserTranscriptHash",
      "outputs": [
        {
          "name": "",
          "type": "string"
        }
      ],
      "payable": false,
      "stateMutability": "view",
      "type": "function",
      "signature": "0x665dcb74"
    }
  ],
  "bytecode": "0x608060405234801561001057600080fd5b506001600081905550611b85806100286000396000f3fe6080604052600436106100d0576000357c0100000000000000000000000000000000000000000000000000000000900463ffffffff168063177a9240146100d55780631fec5aaa1461011257806322ce12e51461014f5780632d21afef1461018c5780633e961be1146101c95780634d7838e214610206578063665dcb74146102435780637b41631e146102805780638dc574e5146102bd578063988da80f146102fa578063a432afa414610337578063cbf980e914610362578063f3a7df7e1461038b578063f574f407146103b4575b600080fd5b3480156100e157600080fd5b506100fc60048036036100f79190810190611744565b6103f1565b6040516101099190611997565b60405180910390f35b34801561011e57600080fd5b5061013960048036036101349190810190611744565b61045d565b60405161014691906119b2565b60405180910390f35b34801561015b57600080fd5b5061017660048036036101719190810190611555565b6105a2565b6040516101839190611a0b565b60405180910390f35b34801561019857600080fd5b506101b360048036036101ae91908101906115c1565b6107e9565b6040516101c09190611a0b565b60405180910390f35b3480156101d557600080fd5b506101f060048036036101eb9190810190611744565b6109c2565b6040516101fd91906119b2565b60405180910390f35b34801561021257600080fd5b5061022d60048036036102289190810190611744565b610b07565b60405161023a9190611a0b565b60405180910390f35b34801561024f57600080fd5b5061026a60048036036102659190810190611744565b610ba5565b60405161027791906119b2565b60405180910390f35b34801561028c57600080fd5b506102a760048036036102a29190810190611744565b610cea565b6040516102b491906119b2565b60405180910390f35b3480156102c957600080fd5b506102e460048036036102df9190810190611744565b610e2f565b6040516102f191906119b2565b60405180910390f35b34801561030657600080fd5b50610321600480360361031c9190810190611744565b610f74565b60405161032e91906119b2565b60405180910390f35b34801561034357600080fd5b5061034c611092565b6040516103599190611975565b60405180910390f35b34801561036e57600080fd5b5061038960048036036103849190810190611744565b6111cc565b005b34801561039757600080fd5b506103b260048036036103ad919081019061176d565b611247565b005b3480156103c057600080fd5b506103db60048036036103d69190810190611744565b6112eb565b6040516103e89190611a0b565b60405180910390f35b6000808211151561040157600080fd5b60008090505b6002805490508160ff161015610452578260028260ff1681548110151561042a57fe5b90600052602060002001541415610445576001915050610458565b8080600101915050610407565b50600090505b919050565b6060610468826103f1565b1515610486576020604051908101604052806000815250905061059d565b60008090505b6001805490508160ff16101561059b578260018260ff168154811015156104af57fe5b90600052602060002090600c020160000154141561058e5760018160ff168154811015156104d957fe5b90600052602060002090600c02016003016003018054600181600116156101000203166002900480601f0160208091040260200160405190810160405280929190818152602001828054600181600116156101000203166002900480156105815780601f1061055657610100808354040283529160200191610581565b820191906000526020600020905b81548152906001019060200180831161056457829003601f168201915b505050505091505061059d565b808060010191505061048c565b505b919050565b600080600090505b6001805490508160ff1610156107dd5773__StringUtils___________________________6346bdca9a60018360ff168154811015156105e657fe5b90600052602060002090600c0201600101866040518363ffffffff167c01000000000000000000000000000000000000000000000000000000000281526004016106319291906119d4565b60206040518083038186803b15801561064957600080fd5b505af415801561065d573d6000803e3d6000fd5b505050506040513d601f19601f82011682018060405250610681919081019061152c565b8015610750575073__StringUtils___________________________6346bdca9a60018360ff168154811015156106b457fe5b90600052602060002090600c0201600201856040518363ffffffff167c01000000000000000000000000000000000000000000000000000000000281526004016106ff9291906119d4565b60206040518083038186803b15801561071757600080fd5b505af415801561072b573d6000803e3d6000fd5b505050506040513d601f19601f8201168201806040525061074f919081019061152c565b5b156107d057600260018260ff1681548110151561076957fe5b90600052602060002090600c020160000154908060018154018082558091505090600182039060005260206000200160009091929091909150555060018160ff168154811015156107b657fe5b90600052602060002090600c0201600001549150506107e3565b80806001019150506105aa565b50600090505b92915050565b600060016080604051908101604052806000808154809291906001019190505581526020018d81526020018c8152602001610120604051908101604052808d81526020018c81526020018f81526020018b81526020018a8152602001898152602001888152602001878152602001868152508152509080600181540180825580915050906001820390600052602060002090600c0201600090919290919091506000820151816000015560208201518160010190805190602001906108af929190611389565b5060408201518160020190805190602001906108cc929190611389565b506060820151816003016000820151816000015560208201518160010190805190602001906108fc929190611389565b506040820151816002019080519060200190610919929190611389565b506060820151816003019080519060200190610936929190611389565b506080820151816004019080519060200190610953929190611389565b5060a0820151816005015560c0820151816006015560e0820151816007019080519060200190610984929190611389565b506101008201518160080190805190602001906109a2929190611389565b5050505050506109b28b8b6105a2565b90509a9950505050505050505050565b60606109cd826103f1565b15156109eb5760206040519081016040528060008152509050610b02565b60008090505b6001805490508160ff161015610b00578260018260ff16815481101515610a1457fe5b90600052602060002090600c0201600001541415610af35760018160ff16815481101515610a3e57fe5b90600052602060002090600c02016003016004018054600181600116156101000203166002900480601f016020809104026020016040519081016040528092919081815260200182805460018160011615610100020316600290048015610ae65780601f10610abb57610100808354040283529160200191610ae6565b820191906000526020600020905b815481529060010190602001808311610ac957829003601f168201915b5050505050915050610b02565b80806001019150506109f1565b505b919050565b6000610b12826103f1565b1515610b215760009050610ba0565b60008090505b6001805490508160ff161015610b9e578260018260ff16815481101515610b4a57fe5b90600052602060002090600c0201600001541415610b915760018160ff16815481101515610b7457fe5b90600052602060002090600c020160030160060154915050610ba0565b8080600101915050610b27565b505b919050565b6060610bb0826103f1565b1515610bce5760206040519081016040528060008152509050610ce5565b60008090505b6001805490508160ff161015610ce3578260018260ff16815481101515610bf757fe5b90600052602060002090600c0201600001541415610cd65760018160ff16815481101515610c2157fe5b90600052602060002090600c02016003016008018054600181600116156101000203166002900480601f016020809104026020016040519081016040528092919081815260200182805460018160011615610100020316600290048015610cc95780601f10610c9e57610100808354040283529160200191610cc9565b820191906000526020600020905b815481529060010190602001808311610cac57829003601f168201915b5050505050915050610ce5565b8080600101915050610bd4565b505b919050565b6060610cf5826103f1565b1515610d135760206040519081016040528060008152509050610e2a565b60008090505b6001805490508160ff161015610e28578260018260ff16815481101515610d3c57fe5b90600052602060002090600c0201600001541415610e1b5760018160ff16815481101515610d6657fe5b90600052602060002090600c02016003016007018054600181600116156101000203166002900480601f016020809104026020016040519081016040528092919081815260200182805460018160011615610100020316600290048015610e0e5780601f10610de357610100808354040283529160200191610e0e565b820191906000526020600020905b815481529060010190602001808311610df157829003601f168201915b5050505050915050610e2a565b8080600101915050610d19565b505b919050565b6060610e3a826103f1565b1515610e585760206040519081016040528060008152509050610f6f565b60008090505b6001805490508160ff161015610f6d578260018260ff16815481101515610e8157fe5b90600052602060002090600c0201600001541415610f605760018160ff16815481101515610eab57fe5b90600052602060002090600c02016003016002018054600181600116156101000203166002900480601f016020809104026020016040519081016040528092919081815260200182805460018160011615610100020316600290048015610f535780601f10610f2857610100808354040283529160200191610f53565b820191906000526020600020905b815481529060010190602001808311610f3657829003601f168201915b5050505050915050610f6f565b8080600101915050610e5e565b505b919050565b606060008090505b6001805490508160ff16101561108b578260018260ff16815481101515610f9f57fe5b90600052602060002090600c020160000154141561107e5760018160ff16815481101515610fc957fe5b90600052602060002090600c02016003016001018054600181600116156101000203166002900480601f0160208091040260200160405190810160405280929190818152602001828054600181600116156101000203166002900480156110715780601f1061104657610100808354040283529160200191611071565b820191906000526020600020905b81548152906001019060200180831161105457829003601f168201915b505050505091505061108d565b8080600101915050610f7c565b505b919050565b60608060008090505b6001805490508160ff1610156111c4576001808260ff168154811015156110be57fe5b90600052602060002090600c02016003016000015414156111b75760018160ff168154811015156110eb57fe5b90600052602060002090600c02016003016001018054600181600116156101000203166002900480601f0160208091040260200160405190810160405280929190818152602001828054600181600116156101000203166002900480156111935780601f1061116857610100808354040283529160200191611193565b820191906000526020600020905b81548152906001019060200180831161117657829003601f168201915b5050505050828260ff168151811015156111a957fe5b906020019060200201819052505b808060010191505061109b565b508091505090565b6000811115156111db57600080fd5b60008090505b6002805490508160ff161015611243578160028260ff1681548110151561120457fe5b906000526020600020015414156112365760028160ff1681548110151561122757fe5b90600052602060002001600090555b80806001019150506111e1565b5050565b611250826103f1565b151561125b576112e7565b60008090505b6001805490508160ff1610156112e5578260018260ff1681548110151561128457fe5b90600052602060002090600c02016000015414156112d8578160018260ff168154811015156112af57fe5b90600052602060002090600c020160030160080190805190602001906112d6929190611409565b505b8080600101915050611261565b505b5050565b60006112f6826103f1565b15156113055760009050611384565b60008090505b6001805490508160ff161015611382578260018260ff1681548110151561132e57fe5b90600052602060002090600c02016000015414156113755760018160ff1681548110151561135857fe5b90600052602060002090600c020160030160050154915050611384565b808060010191505061130b565b505b919050565b828054600181600116156101000203166002900490600052602060002090601f016020900481019282601f106113ca57805160ff19168380011785556113f8565b828001600101855582156113f8579182015b828111156113f75782518255916020019190600101906113dc565b5b5090506114059190611489565b5090565b828054600181600116156101000203166002900490600052602060002090601f016020900481019282601f1061144a57805160ff1916838001178555611478565b82800160010185558215611478579182015b8281111561147757825182559160200191906001019061145c565b5b5090506114859190611489565b5090565b6114ab91905b808211156114a757600081600090555060010161148f565b5090565b90565b60006114ba8251611ae2565b905092915050565b600082601f83011215156114d557600080fd5b81356114e86114e382611a53565b611a26565b9150808252602083016020830185838301111561150457600080fd5b61150f838284611af8565b50505092915050565b60006115248235611aee565b905092915050565b60006020828403121561153e57600080fd5b600061154c848285016114ae565b91505092915050565b6000806040838503121561156857600080fd5b600083013567ffffffffffffffff81111561158257600080fd5b61158e858286016114c2565b925050602083013567ffffffffffffffff8111156115ab57600080fd5b6115b7858286016114c2565b9150509250929050565b6000806000806000806000806000806101408b8d0312156115e157600080fd5b60008b013567ffffffffffffffff8111156115fb57600080fd5b6116078d828e016114c2565b9a505060208b013567ffffffffffffffff81111561162457600080fd5b6116308d828e016114c2565b99505060406116418d828e01611518565b98505060608b013567ffffffffffffffff81111561165e57600080fd5b61166a8d828e016114c2565b97505060808b013567ffffffffffffffff81111561168757600080fd5b6116938d828e016114c2565b96505060a08b013567ffffffffffffffff8111156116b057600080fd5b6116bc8d828e016114c2565b95505060c06116cd8d828e01611518565b94505060e06116de8d828e01611518565b9350506101008b013567ffffffffffffffff8111156116fc57600080fd5b6117088d828e016114c2565b9250506101208b013567ffffffffffffffff81111561172657600080fd5b6117328d828e016114c2565b9150509295989b9194979a5092959850565b60006020828403121561175657600080fd5b600061176484828501611518565b91505092915050565b6000806040838503121561178057600080fd5b600061178e85828601611518565b925050602083013567ffffffffffffffff8111156117ab57600080fd5b6117b7858286016114c2565b9150509250929050565b60006117cc82611a9e565b808452602084019350836020820285016117e585611a7f565b60005b8481101561181e5783830388526118008383516118aa565b925061180b82611abf565b91506020880197506001810190506117e8565b508196508694505050505092915050565b61183881611acc565b82525050565b600061184982611ab4565b80845261185d816020860160208601611b07565b61186681611b3a565b602085010191505092915050565b600061187f82611ab4565b808452611893816020860160208601611b07565b61189c81611b3a565b602085010191505092915050565b60006118b582611aa9565b8084526118c9816020860160208601611b07565b6118d281611b3a565b602085010191505092915050565b6000815460018116600081146118fd576001811461191d5761195e565b607f600283041680865260ff19831660208701526040860193505061195e565b6002820480865260208601955061193385611a8c565b60005b8281101561195557815481890152600182019150602081019050611936565b80880195505050505b505092915050565b61196f81611ad8565b82525050565b6000602082019050818103600083015261198f81846117c1565b905092915050565b60006020820190506119ac600083018461182f565b92915050565b600060208201905081810360008301526119cc818461183e565b905092915050565b600060408201905081810360008301526119ee81856118e0565b90508181036020830152611a028184611874565b90509392505050565b6000602082019050611a206000830184611966565b92915050565b6000604051905081810181811067ffffffffffffffff82111715611a4957600080fd5b8060405250919050565b600067ffffffffffffffff821115611a6a57600080fd5b601f19601f8301169050602081019050919050565b6000602082019050919050565b60008160005260206000209050919050565b600081519050919050565b600081519050919050565b600081519050919050565b6000602082019050919050565b60008115159050919050565b6000819050919050565b60008115159050919050565b6000819050919050565b82818337600083830152505050565b60005b83811015611b25578082015181840152602081019050611b0a565b83811115611b34576000848401525b50505050565b6000601f19601f830116905091905056fea265627a7a72305820e9cde6bd588b32329c4c7c04ada562d3d201f339182b200498dc270e325589736c6578706572696d656e74616cf50037",
  "source": "pragma solidity ^0.5.0;\npragma experimental ABIEncoderV2;\n\nimport {StringUtils} from \"../libraries/StringUtils.sol\";\n\ncontract Users{\n  struct User{\n    uint id;\n    string email;\n    string passHash;\n    UserData data;\n  }\n\n  struct UserData{\n    uint accType;  // 0 = student; 1 = school;\n    string name;\n    string email;\n    string mobile;\n\n    // SCHOOL ONLY\n    string location;\n    \n    // STUDENT ONLY\n    uint prevInst;\n    uint yearCompleted;\n    string refNumber;\n    string transcriptHash;\n  }\n\n  // current uid\n  // this var is to ensure unique user ids for each user\n  uint cUID;\n\n  // users array/DB\n  User[] private users;\n\n  // active session list\n  // note that sessionID = userID\n  uint[] private activeSessions;\n\n  constructor() public{\n    // id of 0 means nothing\n    cUID = 1;\n  }\n\n  // function to create new user acc\n  function createUser(\n    string memory _email,\n    string memory _passHash,\n    uint _accType,\n    string memory _name,\n    string memory _mobile,\n    string memory _location,\n    uint _prevInst,\n    uint _yearCompleted,\n    string memory _refNumber,\n    string memory _transcriptHash\n  ) public returns (uint){\n    users.push(\n      User({\n        id: cUID++,\n        email: _email,\n        passHash: _passHash,\n        data: UserData({\n          accType: _accType,\n          name: _name,\n          email: _email,\n          mobile: _mobile,\n          location: _location,\n          prevInst: _prevInst,\n          yearCompleted: _yearCompleted,\n          refNumber: _refNumber,\n          transcriptHash: _transcriptHash\n        })\n      })\n    );\n\n    // log user in and return sid\n    return loginUser(_email, _passHash);\n  }\n\n  // function to login\n  function loginUser(\n    string memory _email,\n    string memory _passHash\n  ) public returns (uint) {\n    for (uint8 i = 0; i < users.length; i++) {\n      if(StringUtils.equal(users[i].email, _email) && StringUtils.equal(users[i].passHash, _passHash)){\n        activeSessions.push(users[i].id);\n        return users[i].id;\n      }\n    }\n    return 0;\n  }\n\n  // func to log user out\n  function logoutUser(uint sid) public {\n    require(sid > 0);\n    for(uint8 i = 0; i < activeSessions.length; i++){\n      if(activeSessions[i] == sid) delete activeSessions[i];\n    }\n  }\n\n  // func to verify user is authorized\n  function isAuthed(uint _sid) public view returns (bool) {\n    require(_sid > 0);\n    for(uint8 i = 0; i < activeSessions.length; i++){\n      if(activeSessions[i] == _sid) return true;\n    }\n    return false;\n  }\n\n  // function to set hash\n  function setUserTranscriptHash(uint uid, string memory _transcriptHash) public{\n    if(!isAuthed(uid)) return;\n    for (uint8 i = 0; i < users.length; i++) {\n      if(users[i].id == uid){\n        users[i].data.transcriptHash = _transcriptHash;\n      }\n    }\n  }\n\n  function getAllRegisteredSchools() public view returns (string[] memory) {\n    string[] memory l;\n    for (uint8 i = 0; i < users.length; i++) {\n      if(users[i].data.accType == 1){\n        l[i] = users[i].data.name;\n      }\n    }\n    return l;\n  }\n\n  \n  // user details getters\n  // return \"\" or 0 on FAILURE\n  function getUserName(uint _sid) public view returns (string memory){\n    // if(!isAuthed(_sid)) return \"\";\n    for (uint8 i = 0; i < users.length; i++) {\n      if(users[i].id == _sid){\n        return users[i].data.name;\n      }\n    }\n  }\n\n  function getUserEmail(uint _sid) public view returns (string memory){\n    if(!isAuthed(_sid)) return \"\";\n    for (uint8 i = 0; i < users.length; i++) {\n      if(users[i].id == _sid){\n        return users[i].data.email;\n      }\n    }\n  }\n\n  function getUserMobile(uint _sid) public view returns (string memory){\n    if(!isAuthed(_sid)) return \"\";\n    for (uint8 i = 0; i < users.length; i++) {\n      if(users[i].id == _sid){\n        return users[i].data.mobile;\n      }\n    }\n  }\n\n  function getUserLocation(uint _sid) public view returns (string memory){\n    if(!isAuthed(_sid)) return \"\";\n    for (uint8 i = 0; i < users.length; i++) {\n      if(users[i].id == _sid){\n        return users[i].data.location;\n      }\n    }\n  }\n\n  function getUserPrevInst(uint _sid) public view returns (uint){\n    if(!isAuthed(_sid)) return 0;\n    for (uint8 i = 0; i < users.length; i++) {\n      if(users[i].id == _sid){\n        return users[i].data.prevInst;\n      }\n    }\n  }\n\n  function getUserYearCompleted(uint _sid) public view returns (uint){\n    if(!isAuthed(_sid)) return 0;\n    for (uint8 i = 0; i < users.length; i++) {\n      if(users[i].id == _sid){\n        return users[i].data.yearCompleted;\n      }\n    }\n  }\n\n  function getUserRefNumber(uint _sid) public view returns (string memory){\n    if(!isAuthed(_sid)) return \"\";\n    for (uint8 i = 0; i < users.length; i++) {\n      if(users[i].id == _sid){\n        return users[i].data.refNumber;\n      }\n    }\n  }\n\n  function getUserTranscriptHash(uint _sid) public view returns (string memory){\n    if(!isAuthed(_sid)) return \"\";\n    for (uint8 i = 0; i < users.length; i++) {\n      if(users[i].id == _sid){\n        return users[i].data.transcriptHash;\n      }\n    }\n  }\n\n}\n\n\n\ncontract SchoolFunctions{\n  address usersContractAddr = 0x1180BCA5076D506Ed97Cb4634bAa639e7b98F9dF;\n  Users u = Users(usersContractAddr);\n\n  struct SchoolTranscriptRequest{\n    uint uid;\n    string studentName;\n    uint yearCompleted;\n    string refNumber;\n    string email;\n  }\n\n  struct SchoolTranscriptReceive{\n    string hashString;\n    string oldSchoolName;\n    string studentName;\n  }\n  \n  // school transcript request list\n  mapping (uint => SchoolTranscriptRequest[]) public schoolTranscriptRequestList;\n\n  // school transcript receive list\n  mapping(uint => SchoolTranscriptReceive[]) public schoolTranscriptReceiveList;\n\n\n  // func to add to school request list\n  function addTranscriptRequest(\n    uint _sid,\n    uint _oldSchoolID,\n    string memory _studentName,\n    uint _yearCompleted,\n    string memory _refNumber,\n    string memory _email\n  ) public{\n    if(!isLoggedIn(_sid)) return;\n    require(_oldSchoolID > 0);\n\n    schoolTranscriptRequestList[_oldSchoolID].push(\n      SchoolTranscriptRequest({\n        uid: _sid,\n        studentName: _studentName,\n        yearCompleted: _yearCompleted,\n        refNumber: _refNumber,\n        email: _email\n      })\n    );\n  }\n\n  // func to add to school receive list\n  function addTranscriptReceive(\n    uint _sid,\n    uint _schoolID,\n    string memory _hashString,\n    string memory _oldSchoolName,\n    string memory _studentName\n  ) public{\n    if(!isLoggedIn(_sid)) return;\n    schoolTranscriptReceiveList[_schoolID].push(\n      SchoolTranscriptReceive({\n        hashString: _hashString,\n        oldSchoolName: _oldSchoolName,\n        studentName: _studentName\n      })\n    );\n  }\n\n  // func to resolve transcript request\n  function resolveTranscriptRequest(\n    uint _sid,\n    uint _uid,\n    string memory _transcriptHash\n  ) public{\n    if(!isLoggedIn(_sid)) return;\n    // store the hash\n    u.setUserTranscriptHash(_sid, _transcriptHash);\n    \n    // delete the request\n    for (uint8 i = 0; i < schoolTranscriptRequestList[_sid].length; i++) {\n      if(schoolTranscriptRequestList[_sid][i].uid == _uid){\n        delete schoolTranscriptRequestList[_sid][i];\n      }\n    }\n  }\n\n  // func to verify login\n  function isLoggedIn(uint _sid) view internal returns (bool){\n    return u.isAuthed(_sid);\n  }\n}\n\n\ncontract UserFunctions{\n  address usersContractAddr = 0x1180BCA5076D506Ed97Cb4634bAa639e7b98F9dF;\n  address schoolFunctionsContractAddr = 0xE636cdE2E9b9a4e40Ad2dbfFF28011A94701f6aA;\n  Users u = Users(usersContractAddr);\n  SchoolFunctions sF = SchoolFunctions(schoolFunctionsContractAddr);\n\n  struct UserTranscriptRequestForm{\n    uint uid;\n    uint oldSchoolID;\n  }\n  \n  // list of tmp user request forms\n  UserTranscriptRequestForm[] userTranscriptRequestForms;\n\n  // func to process transcript request\n  // RETURN: 0 = FAILED; 1 = SUCCESS\n  function onTranscriptRequest(\n    uint _sid,\n    uint _oldSchoolID\n  ) public returns (uint8){\n    if(!isLoggedIn(_sid)) return 0;\n    userTranscriptRequestForms.push(\n      UserTranscriptRequestForm({\n        uid: _sid,\n        oldSchoolID: _oldSchoolID\n      })\n    );\n    sF.addTranscriptRequest(\n      _sid,\n      _oldSchoolID,\n      u.getUserName(_sid),\n      u.getUserYearCompleted(_sid),\n      u.getUserRefNumber(_sid),\n      u.getUserEmail(_sid)\n    );\n    return 1;\n  }\n\n  // func to handle sending the transcription to prospec school\n  // RETURNS 0 = FAIL; 1 = SUCCESS\n  function onTranscriptForward(\n    uint _sid,\n    uint _prospecSchoolID\n  ) public returns (uint8){\n    if(!isLoggedIn(_sid)) return 0;\n    sF.addTranscriptReceive(\n      _sid,\n      _prospecSchoolID,\n      u.getUserTranscriptHash(_sid),\n      u.getUserName(u.getUserPrevInst(_sid)),\n      u.getUserName(_sid)\n    );\n    return 1;\n  }\n\n  // get the hash if its available\n  // RETURN; 0 = UNAVAILABLE; <HASH> = AVAILABLE\n  function getTranscriptHash(uint _sid) public view returns (string memory){\n    return u.getUserTranscriptHash(_sid);\n  }\n  \n  // func to verify login\n  function isLoggedIn(uint _sid) view internal returns (bool){\n    return u.isAuthed(_sid);\n  }\n}\n",
  "sourcePath": "/home/node08/Documents/proj/rescript/contracts/Application.sol",
  "compiler": {
    "name": "solc",
    "version": "0.5.0+commit.1d4f565a.Emscripten.clang"
  },
  "schemaVersion": "3.0.6",
  "updatedAt": "2019-04-21T12:12:00.596Z",
  "devdoc": {
    "methods": {}
  },
  "userdoc": {
    "methods": {}
  }
}